:100000000C9478000C94A0000C94A0000C94A00018
:100010000C94A0000C94A0000C94A0000C94A000E0
:100020000C94A0000C94A0000C94A0000C94A000D0
:100030000C94A0000C94A0000C94A0000C94A000C0
:100040000C9436050C94A0000C9446030C942003E9
:100050000C94A0000C94A0000C94A0000C94A000A0
:100060000C9411060C94A000D711591164116F1152
:10007000791189119611A311AC11B511BC11D711C9
:10008000E811031218122F124012501264126E124D
:1000900078128112000000002300260029000404C9
:1000A0000404040404040202020202020303030320
:1000B00003030102040810204080010204081020FC
:1000C00001020408102000000008000201000003E3
:1000D00004070000000000000000000000002400F1
:1000E00027002A0000000000250028002B00A9138B
:1000F00011241FBECFEFD8E0DEBFCDBF12E0A0E0DD
:10010000B1E0E2EDFBE202C005900D92A831B1072B
:10011000D9F723E0A8E1B2E001C01D92AD38B207E3
:10012000E1F710E0C8E7D0E004C02197FE010E948B
:100130009B14C737D107C9F70E94390D0C94E715F6
:100140000C940000CF92DF92EF92FF920F931F93D7
:10015000CF93DF936C017A018B01C0E0D0E0CE1524
:10016000DF0589F0D8016D918D01D601ED91FC91EB
:100170000190F081E02DC6010995892B11F47E01D3
:1001800002C02196ECCFC701DF91CF911F910F9153
:10019000FF90EF90DF90CF900895FC01918D828DBC
:1001A000981761F0828DDF01A80FB11D5D968C91CB
:1001B000928D9F5F9F73928F90E008958FEF9FEFD6
:1001C0000895FC01918D828D981731F0828DE80F92
:1001D000F11D858D90E008958FEF9FEF0895FC014C
:1001E000918D228D892F90E0805C9F4F821B910919
:1001F0008F739927089582EA92E00E94EF0021E030
:10020000892B09F420E0822F0895FC01848DDF0101
:10021000A80FB11DA35ABF4F2C91848D90E0019679
:100220008F739927848FA689B7892C93A089B18968
:100230008C9180648C93938D848D981306C0028872
:10024000F389E02D80818F7D80830895EF92FF9266
:100250000F931F93CF93DF93EC0181E0888F9B8DE9
:100260008C8D981305C0E889F989808185FD24C0AB
:10027000F62E0B8D10E00F5F1F4F0F731127E02E2E
:100280008C8DE8120CC00FB607FCFACFE889F9890B
:10029000808185FFF5CFCE010E940501F1CF8B8DC6
:1002A000FE01E80FF11DE35AFF4FF0820B8FEA8940
:1002B000FB898081806207C0EE89FF896083E889BD
:1002C000F98980818064808381E090E0DF91CF9123
:1002D0001F910F91FF90EF900895CF93DF93EC0162
:1002E000888D8823C9F0EA89FB89808185FD05C056
:1002F000A889B9898C9186FD0FC00FB607FCF5CF90
:10030000808185FFF2CFA889B9898C9185FFEDCFD7
:10031000CE010E940501E7CFDF91CF91089580E0E3
:1003200090E0892B29F00E94FB0081110C940000C1
:1003300008953FB7F89480919E0290919F02A091FA
:10034000A002B091A10226B5A89B05C02F3F19F0CD
:100350000196A11DB11D3FBFBA2FA92F982F882745
:10036000820F911DA11DB11DBC01CD0142E0660FA0
:10037000771F881F991F4A95D1F7089585ED8093BF
:10038000BC008091BC0084FDFCCF109273020895E4
:1003900040914D02262F30E0240F311D21323105CE
:1003A000DCF4209173022430C9F4FC0180E090E079
:1003B000861758F430914D022191DC01A55DBD4FA7
:1003C000A30FB11D2C930196F3CF80914D02680FBE
:1003D00060934D0280E0089581E0089582E00895E1
:1003E00008958FEF9FEF08958FEF9FEF089580910D
:1003F0002A0290E09195819591090895CF93DF931A
:1004000000D0CDB7DEB7CB01642F49835A830E9459
:10041000C8014981842F5A81952F0F900F90DF9149
:10042000CF910895CF93DF931F92CDB7DEB7698345
:1004300061E0CE0101960E94C80181E090E00F903A
:10044000DF91CF9108958093BB0084E88093BC0036
:1004500081E69AEE2091BC0027FD03C00197D1F7F9
:1004600006C09091B900987F81E0983209F080E051
:100470000895880F860F8093BB0084E88093BC00AA
:1004800081E69AEE2091BC0027FD03C00197D1F7C9
:1004900011C08091B900887F803421F4662311F067
:1004A00081E008959091B900987F983119F481E026
:1004B0008627089580E0089584E98093BC0081E652
:1004C0009AEE2091BC0024FD02C00197D1F78BE485
:1004D00090E00197F1F7089584EA8093BC0081E6EB
:1004E0009AEE2091BC0027FD03C00197D1F706C00A
:1004F0009091B900987F81E0983009F080E00895EC
:10050000FF920F931F93CF93DF93EC01F62E042FEE
:1005100011E0198B0E946C028823B9F0198B60E0FE
:100520008A810E943902882381F082E0898B8F2D95
:100530000E942302882349F083E0898B802F0E9448
:100540002302882311F084E0898B0E945C0281E001
:100550009989943009F080E0DF91CF911F910F913C
:10056000FF9008951F93CF93DF93EC01162F81E046
:10057000898B0E946C02882379F160E08A810E9455
:100580003902882349F1812F0E942302882321F117
:1005900084EA8093BC0081E69AEE2091BC0027FD9E
:1005A00003C00197D1F718C08091B900887F8031CE
:1005B00099F461E08A810E943902882369F084E815
:1005C0008093BC0081E69AEE2091BC0027FD0BC011
:1005D0000197D1F780E0898B0E945C028989DF91C5
:1005E000CF911F9108958091B9008091B900887FC3
:1005F000883581F78091BB00EECF0F931F93CF9387
:10060000DF93EC01062F142FE881F9810280F3813A
:10061000E02D0995898BFE01E00FF11D9285492F90
:1006200040954823142B982B412F49236381CE01F9
:10063000DF91CF911F910F910C9480020E94E215DF
:100640001F920F920FB60F9211242F933F934F9347
:100650005F936F937F938F939F93AF93BF93EF932A
:10066000FF9382EA92E00E940501FF91EF91BF9112
:10067000AF919F918F917F916F915F914F913F913A
:100680002F910F900FBE0F901F9018951F920F92F1
:100690000FB60F9211242F938F939F93EF93FF9395
:1006A000E091B202F091B3028081E091B802F09142
:1006B000B90282FD12C090818091BB028F5F8F735F
:1006C0002091BC02821751F0E091BB02F0E0EE55A0
:1006D000FD4F958F8093BB0201C08081FF91EF9108
:1006E0009F918F912F910F900FBE0F901F90189593
:1006F000833081F028F4813099F08230A1F00895A0
:100700008730A9F08830B9F08430D1F4809180002E
:100710008F7D03C0809180008F7780938000089543
:1007200084B58F7702C084B58F7D84BD0895809194
:10073000B0008F7703C08091B0008F7D8093B000B0
:1007400008951F93CF93DF93282F30E0F901EA53E8
:10075000FF4F8491F901EE54FF4FD491F901E25615
:10076000FF4FC491CC23C9F0162F81110E9478034A
:10077000EC2FF0E0EE0FFF1FEC51FF4FA591B4916D
:100780008FB7F894111105C09C91ED2FE095E923E6
:1007900002C0EC91ED2BEC938FBFDF91CF911F91B5
:1007A0000895CF93DF93EC0160E08E810E94A10356
:1007B00061E08E810E94A10360E08E810E94A1030E
:1007C0008BE891E00197F1F7DF91CF910895CF93F6
:1007D000DF9390E0FC01EE54FF4F2491FC01E256C0
:1007E000FF4F8491882361F190E0880F991FFC01ED
:1007F000E652FF4FC591D491FC01EC51FF4FA591FA
:10080000B491611109C09FB7F89488812095822323
:100810008883EC912E230BC0623061F49FB7F8946B
:100820003881822F809583238883EC912E2B2C9303
:100830009FBF06C08FB7F894E8812E2B28838FBF07
:10084000DF91CF910895CF93DF93EC0160E082E1D7
:100850000E94E70360E083E10E94E70361E082E138
:100860000E94A10361E083E10E94A10388E48093D8
:10087000B8008091B8008A3018F48AE08093B800FC
:100880008091B9008C7F8093B90062E0CE010E9414
:10089000B202898B86FF06C0482F4F7B62E0CE01F3
:1008A0000E9480026EE0CE010E94B202898B982FD6
:1008B0009F7D31F0482F40726EE0CE010E94800291
:1008C0006FE0CE010E94B202898B982F937811F4C9
:1008D00083FD09C08477482F48606FE0CE01DF9127
:1008E000CF910C948002DF91CF9108951F93CF9305
:1008F000DF93182FEB0161E00E94E703209711F4CA
:1009000060E004C0CF3FD10539F461E0812FDF9171
:10091000CF911F910C94A103E12FF0E0EA53FF4F18
:10092000E491E330F9F048F4E130B9F0E230A1F5B8
:1009300084B5806284BDC8BD34C0E730E9F0E830DA
:1009400019F1E43049F58091800080628093800045
:10095000D0938B00C0938A0024C084B5806884BD86
:10096000C7BD1FC080918000806880938000D093B5
:100970008900C093880015C08091B0008068809382
:10098000B000C093B3000DC08091B000806280932E
:10099000B000C093B40005C0C038D1050CF0B5CF8D
:1009A000AFCFDF91CF911F9108958F929F92AF9219
:1009B000BF92CF92DF92EF92FF926B017C010E9477
:1009C00099014B015C01C114D104E104F104F1F07F
:1009D0000E949901DC01CB0188199909AA09BB0978
:1009E000883E9340A105B10570F321E0C21AD108F9
:1009F000E108F10888EE880E83E0981EA11CB11C66
:100A0000C114D104E104F10419F7DDCFFF90EF9098
:100A1000DF90CF90BF90AF909F908F9008950F93ED
:100A20001F93CF93DF938C01C62F61E070E080E0CD
:100A300090E00E94D504C8018C0F911DEC016B81E0
:100A4000C8010E94B2029A858923DF91CF911F913C
:100A50000F9108952FB7F89460919A0270919B02BC
:100A600080919C0290919D022FBF08951F920F923A
:100A70000FB60F9211242F933F938F939F93AF93B1
:100A8000BF9380919A0290919B02A0919C02B09199
:100A90009D023091990223E0230F2D3720F4019617
:100AA000A11DB11D05C026E8230F0296A11DB11D91
:100AB0002093990280939A0290939B02A0939C02A8
:100AC000B0939D0280919E0290919F02A091A002FE
:100AD000B091A1020196A11DB11D80939E02909339
:100AE0009F02A093A002B093A102BF91AF919F91EA
:100AF0008F913F912F910F900FBE0F901F901895DF
:100B0000CF92DF92EF92FF920F931F93CF93DF93D9
:100B10007C016C0187E0C80ED11CC0E0D0E0062F3C
:100B200010E0B8010C2E02C0759567950A94E2F7A3
:100B30006170F60181916F010E94A1032196C4307A
:100B4000D10579F7C701DF91CF911F910F91FF90E8
:100B5000EF90DF90CF900C94D103CF92DF92EF9281
:100B6000FF920F931F93CF93DF93EC01F62E642F28
:100B70008C810E94A1038D818F3F19F060E00E945B
:100B8000A1038F850F2D10E084FF25C06E0187E043
:100B9000C80ED11CE12CF12CB8010E2C02C07595A9
:100BA00067950A94E2F76170F60181916F010E94E6
:100BB000A103FFEFEF1AFF0A88E0E816F10461F7DE
:100BC000CE01DF91CF911F910F91FF90EF90DF90B9
:100BD000CF900C94D103B80184E0759567958A9500
:100BE000E1F7CE010E9480056F2DCE01DF91CF91FC
:100BF0001F910F91FF90EF90DF90CF900C948005A4
:100C000041E00E94AD0581E090E0089540E00C9441
:100C1000AD0561E00E9406068BE39FE10197F1F7C5
:100C200008951F920F920FB60F9211242F933F93A6
:100C30004F935F936F937F938F939F93AF93BF93E4
:100C4000EF93FF938091B900887F803609F49CC0B0
:100C500068F5883209F45BC090F4803109F454C01F
:100C600038F4882309F4F6C0883009F44DC0F6C082
:100C7000883109F44CC0803209F45DC0EFC0803483
:100C800009F468C048F4803309F455C0883309F08A
:100C9000E5C080937202D8C0803509F44FC0883512
:100CA00009F45DC0883409F0D9C0D6C0883909F488
:100CB000C7C0A8F4883709F467C038F4883609F447
:100CC00063C0803709F460C0C9C0883809F4B8C06F
:100CD000803909F45FC0803809F0C0C05BC0803B38
:100CE00009F486C038F4803A09F466C0883A09F4F9
:100CF0007FC0B4C0803C09F4A7C0883C09F4A4C0FC
:100D0000883B09F48AC0AAC08091980210C09091D3
:100D1000970280919602981770F5E091970281E012
:100D20008E0F80939702F0E0EA58FD4F8081809308
:100D3000BB0085EC86C0809372028EC0E091970262
:100D400081E08E0F809397028091BB00F0E0EA581B
:100D5000FD4F808390919702809196026EC0E09142
:100D6000970281E08E0F809397028091BB00F0E0A4
:100D7000EA58FD4F80838091750281116DC081E03A
:100D80008093740284EA61C083E0809373021092BE
:100D90007102CFCF80917102803208F051C0E09192
:100DA000710281E08E0F809371028091BB00F0E0B0
:100DB000EF5AFD4F8083BDCF85EC8093BC0010922D
:100DC000730280917102803230F4E0917102F0E0A0
:100DD000EF5AFD4F10826091710270E0E0914F0276
:100DE000F091500281E592E009951092710236C0AF
:100DF00084E08093730210924E0210924D02E091B3
:100E00004B02F0914C02099580914D02811105C071
:100E100081E080934D0210922B02E0914E0281E01E
:100E20008E0F80934E02F0E0E55DFD4F8081809350
:100E3000BB0090914E0280914D02981708F479CF33
:100E400085E88093BC000AC085EC8093BC001092BA
:100E5000730204C0109272020E94BE01FF91EF91D2
:100E6000BF91AF919F918F917F916F915F914F91C2
:100E70003F912F910F900FBE0F901F901895EF92FA
:100E8000FF920F931F93CF93DF93EC01623018F022
:100E90008F8588608F876B8B1C8A80E48D8B80E1C7
:100EA0008E8B80E58F8B61E08C810E94E7038D81C2
:100EB0008F3F19F061E00E94E70361E08E810E949C
:100EC000E7037E0187E0E80EF11C00E010E08F856B
:100ED00084FD03C084E090E002C088E090E0081741
:100EE00019074CF461E0F70181917F010E94E7034B
:100EF0000F5F1F4FECCF8BE39DE00197F1F760E0B0
:100F00008C810E94A10360E08E810E94A1038D81EB
:100F10008F3F19F060E00E94A1036F8564FD1DC042
:100F200063E0CE010E9480050BE416E4C80101973E
:100F3000F1F763E0CE010E948005C8010197F1F747
:100F400063E0CE010E94800583E592E00197F1F70E
:100F500062E0CE010E94800516C06062CE010E9450
:100F600006068BE496E40197F1F76F856062CE0187
:100F70000E94060683E592E00197F1F76F856062B3
:100F8000CE010E9406066F856062CE010E940606B1
:100F900084E0888B6CE0CE010E940606CE010E94A0
:100FA000090682E0898B66E0CE01DF91CF911F9127
:100FB0000F91FF90EF900C940606CF92DF92EF9284
:100FC000FF920F931F93CF93DF93C82FD62F042F39
:100FD00011E080915903821310E00E942A05C0900D
:100FE0005A03D0905B03E0905C03F0905D03A7018F
:100FF00096010E947914F694E794D794C7946C15DF
:101000007D058E059F0508F442C0D23009F442C028
:1010100028F4DD2351F0D13011F115C1D33009F49A
:1010200067C0D43009F4B1C00EC1E0914A03F09119
:101030004B03E00FF11D111105C0C73008F0C6E0E9
:10104000C05D01C0C0E2C083FEC0D33008F04CC018
:10105000DD2309F4EEC0D13009F0F5C010E0C4364C
:1010600008F0C3E6202F30E0E0914A03F0914B03F3
:10107000E20FF31F111106C08C2F6AE00E94591471
:10108000805D01C080E280832F5F3F4FC1C0D230BE
:10109000E1F610E0C73008F0C6E0202F30E0E09124
:1010A0004A03F0914B03E20FF31F111108C0A09106
:1010B0004E03B0914F03AC0FB11D8C9101C080E283
:1010C00080832F5F3F4FE0914A03F0914B03E20F83
:1010D000F31F111153C0A0914E03B0914F03AC0FF9
:1010E000B11D11968C914BC0D33009F04AC010E06D
:1010F000C73308F0C6E3E02FF0E0A0914A03B091B7
:101100004B039D012E0F3F1F111109C08091500309
:10111000909151038C0F911DDC018C9101C080E2F4
:10112000D9018C93A0914A03B0914B03CF01019652
:101130009D01280F391F11110AC080915003909111
:1011400051038C0F911DDC0111968C9101C080E23E
:10115000D9018C939F012E5F3F4FE0914A03F0919C
:101160004B03E20FF31F111109C0A0915003B0917E
:101170005103AC0FB11D12968C9101C080E28083A7
:1011800062C0D43009F05FC010E0C43608F0C3E696
:10119000202F30E0E0914A03F0914B03E20FF31F60
:1011A00011110AC080915E0390E001976AE070E03F
:1011B0000E946514605D01C060E26083E0914A03B3
:1011C000F0914B03C9010196E80FF91F11110AC0F4
:1011D00080915E0390E001976AE070E00E946514E0
:1011E000805D01C080E28083E0914A03F0914B036F
:1011F000C9010296E80FF91F111106C08C2F6AE091
:101200000E945914805D01C080E280832D5F3F4FB2
:10121000E0914A03F0914B03E20FF31F111106C056
:101220008C2F6AE00E945914905D01C090E2908377
:101230000AC0C73008F0C6E0E0914A03F0914B03C2
:10124000E00FF11DFDCEDF91CF911F910F91FF9027
:10125000EF90DF90CF900895CF93DF93CFE3D3E06B
:1012600089859A85DC01ED91FC910280F381E02D66
:1012700060E00995982F9695969596959E71292FE1
:10128000220F220F920F8F70890F8B8B8883898595
:101290009A85DC01ED91FC910280F381E02D61E003
:1012A0000995982F9695969596959E71292F220FC0
:1012B000220F920F8F70890F8C8B898389859A8575
:1012C000DC01ED91FC910280F381E02D62E0099553
:1012D000982F9695969596959E71292F220F220FFD
:1012E000920F8F70890F8D8B8B8389859A85DC0196
:1012F000ED91FC910280F381E02D63E00995982F38
:101300009695969596959E71292F220F220F920FF2
:101310008F70890F8E8B8D8389859A85DC01ED9185
:10132000FC910280F381E02D64E00995982F969559
:10133000969596959E71292F220F220F920F8F70EE
:10134000890F8F8B8F8389859A85DC01ED91FC91C4
:101350000280F381E02D65E00995982F969596958A
:1013600096959E71292F220F220F920F8F70890F51
:10137000888F888789859A85DC01ED91FC910280B0
:10138000F381E02D66E00995282F2F702150869576
:10139000869586958E71982F990F990F890F820FD8
:1013A000898F8E830E942A056AA37BA38CA39DA3A9
:1013B000DF91CF910895009769F0FC010190002022
:1013C000E9F73197AF01481B590BBC0185E693E063
:1013D0000C94A20080E090E008954F925F926F928B
:1013E0007F928F929F92AF92BF92CF92DF92EF92B5
:1013F000FF920F931F93CF93DF938C01C0906103F3
:10140000D0906203E0906303F09064030E942A0589
:101410006C157D058E059F0540F4109261031092B6
:101420006203109263031092640320915F03309172
:1014300060032115310519F40E942C09B1C0809177
:10144000610390916203A0916303B09164030097DC
:10145000A105B10589F36C017D01C20ED31EE11C0B
:10146000F11C0E942A056C157D058E059F0520F74D
:101470000E942A05C0906103D0906203E09063034C
:10148000F09064036C197D098E099F0928EE33E002
:1014900040E050E00E947914C0915603D091570368
:1014A000C23009F0A2C18D2F90E083709927892B5B
:1014B00009F495C17CE1F72E8091520329013A018C
:1014C000480E511C611C711CC301B2012CE3822E19
:1014D000912CA12CB12CA50194010E947914609348
:1014E0003F038091530329013A01480E511C611CAE
:1014F000711CC301B201A50194010E94791460938B
:1015000040038091540359016A01A80EB11CC11C0B
:10151000D11CC601B50128E130E040E050E00E9456
:1015200079146093420380915803820F873008F04A
:1015300059C1809345038091550329013A01480E12
:10154000511C611C711CC301B2014F2D50E09A0166
:101550002F5F3F4F032E000C440B550B0E94791454
:10156000620F60934403CA01B9016C0F711D811DA4
:10157000911D2DE030E040E050E00E947914620FB0
:1015800060934603CA01B9016D0F711D811D911D44
:1015900024E630E040E050E00E9479146093470375
:1015A00020914203822F6CE00E945914911101C0D6
:1015B0009CE09093410391E02C3008F490E09093EC
:1015C0004303F80101900020E9F731979F01201BA8
:1015D000310BC1E0C20FA0914C03B0914D0390E0DC
:1015E000492F50E04217530738F5FD0101900020C4
:1015F000E9F731977F01EA1AFB0A80E0400F511F9B
:10160000682F70E06E157F05A8F46A0F7B1FFA0142
:10161000D081FB016081D6130BC0882349F08A304A
:1016200010F4CF5F05C08C3010F4CE5F01C0CD5FE9
:101630008F5FE6CF9F5FD4CF80914A0390914B0399
:101640000E944A158C2F90E00E94B51490934B0392
:1016500080934A03C0E0D0E08D2F90E0F801019024
:101660000020E9F73197E01BF10B8E179F0708F078
:101670009AC0F801E80FF91F9081E0914C03F091B6
:101680004D038081981308C027E04C2F60E08091C3
:1016900045030E94DD0784C08181981307C08091B3
:1016A000430328E04C2F62E0880F0AC08281981320
:1016B0000BC080914303880F28E04C2F62E08C5FC1
:1016C0000E94DD07CE5F6DC08381981306C024E0C1
:1016D0004C2F61E080914403F3CF8481981306C0BE
:1016E00023E04C2F61E080914103EACF858198137C
:1016F00006C023E04C2F61E080914203E1CF868158
:10170000981306C022E04C2F61E080914003D8CFAF
:101710008781981306C025E04C2F61E08091460335
:10172000CFCF8085981306C021E04C2F61E08091D7
:101730003F03C6CF8185981306C026E04C2F61E099
:1017400080914703BDCF8285981308C080914603DE
:1017500090E00696982F990F25E008C0838598138E
:101760000CC080914503982F990F27E04C2F63E020
:10177000890F0E94DD07CD5F14C08485981309C0CE
:1017800026E04C2F64E0809147030E94DD07CC5F88
:1017900008C0E0914A03F0914B03EC0FF11D9083D8
:1017A000CF5FDF5F59CFE0914A03F0914B03EC0F1D
:1017B000F11D108280914A0390914B03DF91CF91EC
:1017C0001F910F91FF90EF90DF90CF90BF90AF905F
:1017D0009F908F907F906F905F904F9008956DE1F4
:1017E000F62E6ACE10924503A6CE8C2F90E061E0D3
:1017F00070E0C83010F460E070E0860F971F8170D1
:1018000099279EE1F92EF80E57CE8F929F92AF92B4
:10181000BF92CF92DF92EF92FF920F931F93CF93DD
:10182000DF935B01EA0149018D339105A8F4A09192
:101830004803B0914903ED91FC9111976AE00E9431
:101840005914492F20E1829F400D11240480F58115
:10185000E02D60E0CD0109958DE3A816B104B0F448
:10186000A0914803B0914903ED91FC9111978A2D05
:101870006AE00E945914492F20E1829F400D1124F3
:101880000480F581E02D61E0CD010995C831D105D5
:10189000B0F4A0914803B0914903ED91FC911197E8
:1018A0008C2F6AE00E945914492F20E1829F400D3D
:1018B00011240480F581E02D62E0CD010995C40179
:1018C00001974F97B0F4A0914803B0914903ED916F
:1018D000FC911197882D6AE00E945914492F20E14C
:1018E000829F400D11240480F581E02D63E0CD013D
:1018F0000995C80101970C97B0F4A0914803B091E5
:101900004903ED91FC911197802F6AE00E945914D0
:10191000492F20E1829F400D11240480F581E02DA4
:1019200064E0CD01099584E6E816F104B0F4A091D5
:101930004803B0914903ED91FC9111978E2D6AE017
:101940000E945914492F20E1829F400D11240480E8
:10195000F581E02D65E0CD01099587E0C816D10439
:1019600098F4A0914803B0914903ED91FC9111972F
:1019700081E08C0D6AE00E9459140480F581E02D0D
:10198000492F66E0CD0109950E942C092091420360
:10199000822F6CE00E945914911101C09CE0909339
:1019A000410391E02C3008F490E090934303DF91E1
:1019B000CF911F910F91FF90EF90DF90CF90BF904C
:1019C000AF909F908F900895CF92DF92EF92FF9209
:1019D0000F931F93CF93DF93CDB7DEB7A1970FB6C9
:1019E000F894DEBF0FBECDBF282F30E040E050E0BE
:1019F00019A28E010F5D1F4F8AE0C82ED12CE12C59
:101A0000F12CCA01B901A70196010E947914605D09
:101A1000F80162938F01211531054105510589F7C0
:101A2000CF010E94DB09A1960FB6F894DEBF0FBE6E
:101A3000CDBFDF91CF911F910F91FF90EF90DF907D
:101A4000CF9008950C94DB09643008F063E0909126
:101A50007803691710F06FEF690FE62FF0E0EB598C
:101A6000FC4F9489682F690F606885E693E00C94B9
:101A70000606789484B5826084BD84B5816084BD97
:101A800085B5826085BD85B5816085BD80916E001C
:101A9000816080936E00109281008091810082604D
:101AA000809381008091810081608093810080918A
:101AB00080008160809380008091B1008460809379
:101AC000B1008091B00081608093B00080917A0075
:101AD000846080937A0080917A00826080937A009B
:101AE00080917A00816080937A0080917A0080688A
:101AF00080937A001092C100E091B202F091B3029B
:101B000082E08083E091AE02F091AF021082E0911A
:101B1000B002F091B10287E680831092BA02E091A0
:101B2000B602F091B70286E08083E091B402F091B2
:101B3000B502808180618083E091B402F091B502AA
:101B4000808188608083E091B402F091B502808149
:101B500080688083E091B402F091B50280818F7D2E
:101B6000808361E083E00E94E70361E08AE00E94F5
:101B7000E70361E08BE00E94E70360E082E00E94FF
:101B8000E7036CE271E080E090E00E94D504809170
:101B9000480390914903DC01ED91FC910190F081A3
:101BA000E02D099587E591E00E94ED0962E085E668
:101BB00093E00E943F0768E485E693E00E940606F2
:101BC000C0E0D1E0699185E693E00E940006B1E0B3
:101BD000C830DB07B9F760910801709109018AE00C
:101BE0000E9476040E942A056093180270931902DD
:101BF00080931A0290931B0238EE432E33E0532E4B
:101C0000612C712C48EC242E40E0342E54EBA52E90
:101C100050E0B52E60EA862E60E0962ECFEFD0E041
:101C20000E942A05A30192010E947914672B682B58
:101C3000692B49F080E480937C0080917A00806475
:101C400080937A00CDC28091290260E0811130C07A
:101C50000E94240D80910F01813021F488E591E0EC
:101C60000E94220D80910F01823021F48EE591E0D7
:101C70000E94220D80910F01833021F485E691E0CE
:101C80000E94220D80910F01843021F48FE691E0B3
:101C90000E94220D60E08FE00E94240D80910E01D1
:101CA000811103C082EC91E024C086E591E021C05F
:101CB00080E00E94240D80910F01813021F48AE799
:101CC00091E00E94220D80910F01823021F487E87B
:101CD00091E00E94220D80910F01833021F485E96B
:101CE00091E00E94220D80910F01843021F485EA59
:101CF00091E00E94220D80910F01813009F043C0D4
:101D000061E080E00E94240D87E591E00E94ED09EA
:101D100080912902833039F480913F0380FF03C012
:101D200081EC91E004C086EB91E00E94ED090E94F5
:101D3000220D84EB91E00E94220D809129028230D5
:101D400039F480913F0380FF03C081EC91E004C02F
:101D500088EB91E00E94ED090E94220D84EB91E056
:101D60000E94220D80912902813039F480913F0335
:101D700080FF03C081EC91E004C08CE591E00E94FB
:101D8000ED090E94220D80910F01823009F070C090
:101D900061E080E00E94240D87E591E00E94ED095A
:101DA00080912902843049F480913F0380FF05C06F
:101DB00081EC91E00E94220D0CC0809144038A3096
:101DC00020F48EEB91E00E94220D809144030E944A
:101DD000E40C8AEB91E00E94220D8091290285306B
:101DE00049F480913F0380FF05C081EC91E00E949F
:101DF000220D0CC0809146038A3020F48EEB91E0D6
:101E00000E94220D809146030E94E40C8CEB91E02D
:101E10000E94220D80912902863049F480913F036F
:101E200080FF05C081EC91E00E94220D0CC08091E2
:101E300047038A3020F48EEB91E00E94220D8091BE
:101E400047030E94E40C80EC91E00E94220D8091F7
:101E50002902873039F480913F0380FF03C080EC72
:101E600091E004C084EC91E00E94ED090E94220DF3
:101E700080910F018330F1F561E080E00E94240D34
:101E800087E591E00E94ED0980912902893049F4AB
:101E900080913F0380FF05C081EC91E00E94220DFC
:101EA0000CC080910D018A3020F48EEB91E00E94ED
:101EB000220D80910D010E94E40C84EB91E00E94C0
:101EC000220D80912902883049F480913F0380FFE0
:101ED00005C081EC91E00E94220D0CC080910C01A4
:101EE0008A3020F48EEB91E00E94220D80910C014B
:101EF0000E94E40C80910F018430F1F561E080E0F4
:101F00000E94240D87E591E00E94ED09809129024D
:101F10008B3049F480913F0380FF05C081EC91E054
:101F20000E94220D0CC080910B018A3020F48EEBB0
:101F300091E00E94220D80910B010E94E40C84EB41
:101F400091E00E94220D809129028A3049F480910B
:101F50003F0380FF05C081EC91E00E94220D0CC080
:101F600080910A018A3020F48EEB91E00E94220DCC
:101F700080910A010E94E40C61E070E080E090E052
:101F80000E94D504F0900E01FF20A1F080913F0344
:101F9000811112C09091400380910C0198130CC0E4
:101FA0009091420380910D01981306C081E08093C7
:101FB000280202C01092280280912802882311F181
:101FC0000091220210912302065F1F4F10932302FB
:101FD00000932202B80183E00E94760464EF71E06E
:101FE00080E090E00E94D504073E11055CF0D0939C
:101FF0002302C09322026FEF70E083E00E94760418
:1020000010922802FF20A1F080913F03811112C09D
:102010009091400380910A0198130CC09091420363
:1020200080910B01981306C081E08093270202C0C3
:102030001092270280912702882311F10091220239
:10204000109123020A5011091093230200932202D7
:10205000B80183E00E94760464EF71E080E090E0D4
:102060000E94D5040B3011055CF4109223021092EB
:10207000220260E070E083E00E9476041092270262
:10208000809140038E3138F090914203943118F0E2
:1020900091E09093260290913F03911108C08B33F9
:1020A00031F480914203873111F41092260280911D
:1020B0002602882309F4BECDF1018491F501049133
:1020C000F40114911123A1F081110E947803E12FF2
:1020D000F0E0EE0FFF1FEC56FF4FA591B4918C91ED
:1020E000082331E020E009F430E0832F922F02C072
:1020F00080E090E090931F0280931E0220911C02CA
:1021000030911D02232BB1F5019709F093CD0E9468
:102110002A05009118021091190220911A0230919B
:102120001B02DC01CB01801B910BA20BB30B893C82
:102130009105A105B105B8F060911C0270911D02D6
:102140006F5F7F4F70931D0260931C0283E00E94BB
:1021500076040E942A0560931802709319028093F6
:102160001A0290931B0280911C0290911D02C2974B
:1021700074F260CD892B09F05DCD0E942A05009193
:1021800018021091190220911A0230911B02DC01F1
:10219000CB01801B910BA20BB30B893C9105A105D0
:1021A000B105B8F060911C0270911D026150710977
:1021B00070931D0260931C0283E00E9476040E94CB
:1021C0002A05609318027093190280931A02909363
:1021D0001B0280911C0290911D02892B71F62ACD61
:1021E00080917A00482F407486FDFACF8091780064
:1021F0002091790090E0922B90932102809320020D
:10220000893EF3E09F078CF4823391058CF08A3F7E
:1022100091058CF0823C21E0920784F08A38A2E09C
:102220009A077CF0823593407CF025E030E00EC0C8
:1022300020E030E00BC021E030E008C022E030E0D8
:1022400005C023E030E002C024E030E030932502F6
:102250002093240210912902112309F4BEC12130D8
:10226000310571F024F4232B09F454C156C22230F5
:10227000310509F488C02430310509F479C14DC213
:1022800080912802882329F01092280210922702B8
:102290003EC2809127028111F7CF812F90E0FC018F
:1022A0003197EB30F10508F032C2EC5CFF4F0C9433
:1022B0009B14609140036B3321F070E06F5F7F4FA0
:1022C00091C060E070E08EC040914203473121F040
:1022D00050E04F5F5F4FA1C040E050E09EC0809152
:1022E00044038F3109F4AEC0282F30E02F5F3F4FF9
:1022F000A9C0809146038C3021F0282F30E02F5F59
:102300003F4FCC24CA94DC2CEE24EA94FE2C8901A5
:10231000D8C080914703833631F0E82EF12CEFEFDF
:10232000EE1AFE0AB9C0E12CF12CB6C0809145032B
:10233000863031F0C82ED12CFFEFCF1ADF0ABCC097
:10234000C12CD12CB9C080910C018B3311F041E02C
:10235000480F40930C01DBC180910D01873111F0D2
:1023600041E0480F40930D01D2C180910A018B33A7
:1023700009F4C4C041E0C1C080910B01873109F468
:10238000C6C041E0C3C08091280281117DCF8091F9
:102390002702811179CF812F90E0FC013197EB303A
:1023A000F10508F0B4C1E15CFF4F0C949B14CC2400
:1023B000CA94DC2CEE24EA94FE2C0FEF1FEF2FEFD3
:1023C0003FEF4FEF5FEF6FEF7FEF80E090E018C0DF
:1023D00060914003662321F070E06150710902C0F2
:1023E0006BE370E0CC24CA94DC2CEE24EA94FE2C3F
:1023F0000FEF1FEF2FEF3FEF4FEF5FEF8FEF9FEFED
:102400000E94050C84C140914203442321F050E016
:102410004150510902C047E150E0CC24CA94DC2C61
:10242000EE24EA94FE2C0FEF1FEF2FEF3FEF14C0C6
:1024300020914403213021F030E02150310902C0C5
:102440002FE130E0CC24CA94DC2CEE24EA94FE2C5C
:102450000FEF1FEF4FEF5FEF6FEF7FEFCFCF0091E9
:102460004603013021F010E00150110902C00CE0D8
:1024700010E0CC24CA94DC2CEE24EA94FE2C21C07B
:10248000E0904703EE2029F0F12C21E0E21AF10858
:1024900003C033E6E32EF12CCC24CA94DC2C0FC00D
:1024A000C0904503CC2029F0D12C81E0C81AD10876
:1024B00003C096E0C92ED12CEE24EA94FE2C0FEF37
:1024C0001FEF2FEF3FEFC6CF80910C01882311F053
:1024D000815001C08BE380930C0119C180910D01E3
:1024E000882311F0815001C087E180930D010FC155
:1024F00080910A018B3311F04FEF480F40930A018E
:1025000006C180910B01873111F04FEF480F4093C6
:102510000B01FDC085E693E00E9409068091280228
:102520008111B2CE809127028111AECE80910F0130
:10253000813029F482E080930F0184E006C082306C
:1025400039F483E080930F0188E080932902DFC093
:10255000833029F484E080930F018AE0F6CF843041
:1025600009F0D5C081E080930F0110922902CFC0FD
:1025700080912802811188CE80912702811184CE1A
:1025800085E693E00E94090681E0810F8C3018F403
:102590008093290205C01092290281E080930F01E7
:1025A000809129029FEF980F933018F491E0909357
:1025B0000F019CEF980F943018F492E090930F0164
:1025C00098EF980F923018F493E090930F018A508F
:1025D000823008F09CC084E098C02130310571F051
:1025E00024F4232B09F46FC098C02230310509F47C
:1025F00041C02430310509F479C08FC08091280290
:10260000811142CE8091270281113ECE80910F012F
:102610009FEF980F923020F5809122029091230233
:10262000803F910594F06AE070E083E00E947604B8
:1026300064EF71E080E090E00E94D504D093230223
:10264000C09322026FEF70E02FC0499660E071E006
:102650000E9465149093230280932202BC0124C03F
:102660008350823038F490910E0181E08927809365
:102670000E014DC080910F019FEF980F9230C0F472
:1026800060912202709123026B3071053CF410922C
:1026900023021092220260E070E006C069517109C5
:1026A000709323026093220283E00E9476042FC07D
:1026B000909128029111E8CD909127029111E4CDDB
:1026C0008350823080F2809128028111DDCD80918B
:1026D00027028111D9CD85E693E00E9409068091F9
:1026E0000F018F5F853088F081E00FC08091280254
:1026F0008111CACD809127028111C6CD85E693E074
:102700000E94090681E08093290280930F0164EF03
:1027100071E080E090E00E94D504809124029091C5
:102720002502039799F460910801709109016054A2
:10273000710970930901609308018AE00E94760490
:1027400064EF71E080E090E00E94D5040E948F0168
:1027500067CACF92DF92EF92FF92CF93DF93E2EAC4
:10276000F2E01382128288EEC82E83E0D82EE12C8C
:10277000F12CC482D582E682F78288E291E09183CF
:10278000808385EC90E09587848784EC90E0978740
:10279000868780EC90E0918B808B81EC90E0938B2E
:1027A000828B82EC90E0958B848B86EC90E0978B0B
:1027B000868B118E128E138E148EEDE7F3E013824A
:1027C0001282C482D582E682F78288E391E0918307
:1027D0008083E5E6F3E01382128282E591E0918343
:1027E000808388E084838FEF858389E0868384E01B
:1027F000878385E0808786E0818787E082871386EC
:10280000148615861686178661E0CF010E943F0761
:10281000CFE3D3E01882198281E08A831B821C8275
:102820008D831E828F83188681E090E00E94B5140C
:102830009C878B8786EC91E09E878D8784ED91E065
:10284000988B8F878DED91E09A8B898B1A8ECB8E2A
:10285000DC8EED8EFE8E85E18F8F19A218A21AA252
:102860001BA21CA21DA282E190E00E94B51428E4E4
:1028700031E0FC013183208328E6228327E0E6E172
:10288000F1E0DC01139601900D922A95E1F727E023
:10289000EDE1F1E0DC011A9601900D922A95E1F745
:1028A0009A878987DF91CF91FF90EF90DF90CF904B
:1028B0000895991B79E004C0991F961708F0961B9C
:1028C000881F7A95C9F78095089597FB072E16F40F
:1028D000009407D077FD09D00E94A11407FC05D011
:1028E0003EF4909581959F4F0895709561957F4F27
:1028F0000895A1E21A2EAA1BBB1BFD010DC0AA1F41
:10290000BB1FEE1FFF1FA217B307E407F50720F058
:10291000A21BB30BE40BF50B661F771F881F991FD3
:102920001A9469F760957095809590959B01AC011C
:10293000BD01CF010895EE0FFF1F0590F491E02D2A
:102940000994AA1BBB1B51E107C0AA1FBB1FA617F6
:10295000B70710F0A61BB70B881F991F5A95A9F748
:1029600080959095BC01CD010895CF93DF9382307F
:10297000910510F482E090E0E0918B03F0918C03DC
:1029800020E030E0C0E0D0E0309711F1408151818B
:1029900048175907C0F04817590761F4828193819D
:1029A000209719F09B838A832BC090938C0380938C
:1029B0008B0326C02115310519F04217530718F46F
:1029C0009A01BE01DF01EF010280F381E02DDCCF2F
:1029D0002115310509F1281B390B2430310590F4FC
:1029E00012968D919C9113976115710521F0FB0151
:1029F0009383828304C090938C0380938B03FD01A7
:102A0000329644C0FD01E20FF31F8193919322504F
:102A100031092D933C933AC02091890330918A0368
:102A2000232B41F4209112013091130130938A033A
:102A30002093890320911001309111012115310556
:102A400041F42DB73EB74091140150911501241B5C
:102A5000350BE0918903F0918A03E217F307A0F4A4
:102A60002E1B3F0B2817390778F0AC014E5F5F4FE4
:102A70002417350748F04E0F5F1F50938A03409389
:102A800089038193919302C0E0E0F0E0CF01DF91F0
:102A9000CF9108950F931F93CF93DF93009709F47D
:102AA0008CC0FC0132971382128200918B0310912B
:102AB0008C030115110581F420813181820F931F50
:102AC0002091890330918A032817390779F5F0930B
:102AD0008A03E093890371C0D80140E050E0AE174B
:102AE000BF0750F412962D913C911397AD0121151B
:102AF000310509F1D901F3CF9D01DA013383228336
:102B000060817181860F971F8217930769F4EC012A
:102B100028813981260F371F2E5F3F4F3183208355
:102B20008A819B8193838283452B29F4F0938C03C4
:102B3000E0938B0342C01396FC93EE931297ED0142
:102B4000499159919E01240F351FE217F30771F443
:102B500080819181840F951F029611969C938E938C
:102B60008281938113969C938E931297E0E0F0E01C
:102B7000D80112968D919C911397009719F0F80146
:102B80008C01F6CF8D919C9198012E5F3F4F820F63
:102B9000931F2091890330918A032817390769F41C
:102BA000309729F410928C0310928B0302C0138289
:102BB000128210938A0300938903DF91CF911F91B2
:102BC0000F91089581E090E0F8940C94E715F89443
:022BD000FFCF35
:102BD200000E1517110E0000FF00320B280B010129
:102BE20000008D038000000102040506037F7F3F81
:102BF2003F1FFF07000000002601A200EF00CD00EA
:102C0200E1006D01000000001202FE01F701F40173
:102C1200F101F0010000000023040F05FD02000095
:102C220000000006A20001004C61696B7300446160
:102C320074756D7300476169736D61204F4E004773
:102C42006169736D61204F464600557A73742E2078
:102C52006C61696B753A00557A73742E20646174E5
:102C6200756D753A00557A73742E20476169736DDC
:102C7200614F4E3A00557A73742E20476169736D25
:102C8200614F46463A00480069002D002D3230005F
:102C9200202020004400776141646848696D73799F
:102CA2004D445900616D706D414D504D0053756E2C
:102CB2004D6F6E54756557656454687546726953F5
:102CC20061744A616E4665624D61724170724D6116
:102CD200794A756E4A756C4175675365704F6374B6
:082CE2004E6F764465630000AB
:107E0000112484B714BE81FFF0D085E080938100F7
:107E100082E08093C00088E18093C10086E0809377
:107E2000C20080E18093C4008EE0C9D0259A86E02C
:107E300020E33CEF91E0309385002093840096BBD3
:107E4000B09BFECF1D9AA8958150A9F7CC24DD24C4
:107E500088248394B5E0AB2EA1E19A2EF3E0BF2EE7
:107E6000A2D0813461F49FD0082FAFD0023811F036
:107E7000013811F484E001C083E08DD089C08234E0
:107E800011F484E103C0853419F485E0A6D080C0E4
:107E9000853579F488D0E82EFF2485D0082F10E0AE
:107EA000102F00270E291F29000F111F8ED06801E7
:107EB0006FC0863521F484E090D080E0DECF843638
:107EC00009F040C070D06FD0082F6DD080E0C81688
:107ED00080E7D80618F4F601B7BEE895C0E0D1E017
:107EE00062D089930C17E1F7F0E0CF16F0E7DF06D8
:107EF00018F0F601B7BEE89568D007B600FCFDCFD4
:107F0000A601A0E0B1E02C9130E011968C91119780
:107F100090E0982F8827822B932B1296FA010C0160
:107F200087BEE89511244E5F5F4FF1E0A038BF0790
:107F300051F7F601A7BEE89507B600FCFDCF97BE46
:107F4000E89526C08437B1F42ED02DD0F82E2BD052
:107F50003CD0F601EF2C8F010F5F1F4F84911BD097
:107F6000EA94F801C1F70894C11CD11CFA94CF0C13
:107F7000D11C0EC0853739F428D08EE10CD085E9AC
:107F80000AD08FE07ACF813511F488E018D01DD067
:107F900080E101D065CF982F8091C00085FFFCCF94
:107FA0009093C60008958091C00087FFFCCF809118
:107FB000C00084FD01C0A8958091C6000895E0E648
:107FC000F0E098E1908380830895EDDF803219F02E
:107FD00088E0F5DFFFCF84E1DECF1F93182FE3DFCA
:107FE0001150E9F7F2DF1F91089580E0E8DFEE27F6
:047FF000FF270994CA
:027FFE00040479
:0400000300007E007B
:00000001FF
